{
	"_format": "hh-sol-artifact-1",
	"contractName": "SupplyChain",
	"sourceName": "contracts/SupplyChain.sol",
	"abi": [
		{
			"inputs": [],
			"stateMutability": "nonpayable",
			"type": "constructor"
		},
		{
			"inputs": [
				{
					"internalType": "address",
					"name": "sender",
					"type": "address"
				},
				{
					"internalType": "uint256",
					"name": "tokenId",
					"type": "uint256"
				},
				{
					"internalType": "address",
					"name": "owner",
					"type": "address"
				}
			],
			"name": "ERC721IncorrectOwner",
			"type": "error"
		},
		{
			"inputs": [
				{
					"internalType": "address",
					"name": "operator",
					"type": "address"
				},
				{
					"internalType": "uint256",
					"name": "tokenId",
					"type": "uint256"
				}
			],
			"name": "ERC721InsufficientApproval",
			"type": "error"
		},
		{
			"inputs": [
				{
					"internalType": "address",
					"name": "approver",
					"type": "address"
				}
			],
			"name": "ERC721InvalidApprover",
			"type": "error"
		},
		{
			"inputs": [
				{
					"internalType": "address",
					"name": "operator",
					"type": "address"
				}
			],
			"name": "ERC721InvalidOperator",
			"type": "error"
		},
		{
			"inputs": [
				{
					"internalType": "address",
					"name": "owner",
					"type": "address"
				}
			],
			"name": "ERC721InvalidOwner",
			"type": "error"
		},
		{
			"inputs": [
				{
					"internalType": "address",
					"name": "receiver",
					"type": "address"
				}
			],
			"name": "ERC721InvalidReceiver",
			"type": "error"
		},
		{
			"inputs": [
				{
					"internalType": "address",
					"name": "sender",
					"type": "address"
				}
			],
			"name": "ERC721InvalidSender",
			"type": "error"
		},
		{
			"inputs": [
				{
					"internalType": "uint256",
					"name": "tokenId",
					"type": "uint256"
				}
			],
			"name": "ERC721NonexistentToken",
			"type": "error"
		},
		{
			"inputs": [],
			"name": "MathOverflowedMulDiv",
			"type": "error"
		},
		{
			"anonymous": false,
			"inputs": [
				{
					"indexed": true,
					"internalType": "address",
					"name": "owner",
					"type": "address"
				},
				{
					"indexed": true,
					"internalType": "address",
					"name": "approved",
					"type": "address"
				},
				{
					"indexed": true,
					"internalType": "uint256",
					"name": "tokenId",
					"type": "uint256"
				}
			],
			"name": "Approval",
			"type": "event"
		},
		{
			"anonymous": false,
			"inputs": [
				{
					"indexed": true,
					"internalType": "address",
					"name": "owner",
					"type": "address"
				},
				{
					"indexed": true,
					"internalType": "address",
					"name": "operator",
					"type": "address"
				},
				{
					"indexed": false,
					"internalType": "bool",
					"name": "approved",
					"type": "bool"
				}
			],
			"name": "ApprovalForAll",
			"type": "event"
		},
		{
			"anonymous": false,
			"inputs": [
				{
					"indexed": false,
					"internalType": "uint256",
					"name": "_fromTokenId",
					"type": "uint256"
				},
				{
					"indexed": false,
					"internalType": "uint256",
					"name": "_toTokenId",
					"type": "uint256"
				}
			],
			"name": "BatchMetadataUpdate",
			"type": "event"
		},
		{
			"anonymous": false,
			"inputs": [
				{
					"indexed": false,
					"internalType": "uint256",
					"name": "_tokenId",
					"type": "uint256"
				}
			],
			"name": "MetadataUpdate",
			"type": "event"
		},
		{
			"anonymous": false,
			"inputs": [
				{
					"indexed": true,
					"internalType": "address",
					"name": "from",
					"type": "address"
				},
				{
					"indexed": true,
					"internalType": "address",
					"name": "to",
					"type": "address"
				},
				{
					"indexed": true,
					"internalType": "uint256",
					"name": "tokenId",
					"type": "uint256"
				}
			],
			"name": "Transfer",
			"type": "event"
		},
		{
			"inputs": [
				{
					"internalType": "address",
					"name": "to",
					"type": "address"
				},
				{
					"internalType": "uint256",
					"name": "tokenId",
					"type": "uint256"
				}
			],
			"name": "approve",
			"outputs": [],
			"stateMutability": "nonpayable",
			"type": "function"
		},
		{
			"inputs": [
				{
					"internalType": "address",
					"name": "owner",
					"type": "address"
				}
			],
			"name": "balanceOf",
			"outputs": [
				{
					"internalType": "uint256",
					"name": "",
					"type": "uint256"
				}
			],
			"stateMutability": "view",
			"type": "function"
		},
		{
			"inputs": [
				{
					"internalType": "address",
					"name": "_merchant",
					"type": "address"
				},
				{
					"internalType": "uint256",
					"name": "_amount",
					"type": "uint256"
				},
				{
					"internalType": "string",
					"name": "_tokenURI",
					"type": "string"
				}
			],
			"name": "createOrder",
			"outputs": [
				{
					"internalType": "uint256",
					"name": "",
					"type": "uint256"
				}
			],
			"stateMutability": "payable",
			"type": "function"
		},
		{
			"inputs": [
				{
					"internalType": "uint256",
					"name": "_orderId",
					"type": "uint256"
				}
			],
			"name": "deliverOrder",
			"outputs": [],
			"stateMutability": "nonpayable",
			"type": "function"
		},
		{
			"inputs": [
				{
					"internalType": "uint256",
					"name": "tokenId",
					"type": "uint256"
				}
			],
			"name": "getApproved",
			"outputs": [
				{
					"internalType": "address",
					"name": "",
					"type": "address"
				}
			],
			"stateMutability": "view",
			"type": "function"
		},
		{
			"inputs": [
				{
					"internalType": "address",
					"name": "owner",
					"type": "address"
				},
				{
					"internalType": "address",
					"name": "operator",
					"type": "address"
				}
			],
			"name": "isApprovedForAll",
			"outputs": [
				{
					"internalType": "bool",
					"name": "",
					"type": "bool"
				}
			],
			"stateMutability": "view",
			"type": "function"
		},
		{
			"inputs": [],
			"name": "name",
			"outputs": [
				{
					"internalType": "string",
					"name": "",
					"type": "string"
				}
			],
			"stateMutability": "view",
			"type": "function"
		},
		{
			"inputs": [],
			"name": "nextOrderId",
			"outputs": [
				{
					"internalType": "uint256",
					"name": "",
					"type": "uint256"
				}
			],
			"stateMutability": "view",
			"type": "function"
		},
		{
			"inputs": [
				{
					"internalType": "uint256",
					"name": "",
					"type": "uint256"
				}
			],
			"name": "orders",
			"outputs": [
				{
					"internalType": "uint256",
					"name": "id",
					"type": "uint256"
				},
				{
					"internalType": "address",
					"name": "merchant",
					"type": "address"
				},
				{
					"internalType": "address",
					"name": "buyer",
					"type": "address"
				},
				{
					"internalType": "uint256",
					"name": "amount",
					"type": "uint256"
				},
				{
					"internalType": "bool",
					"name": "isCompleted",
					"type": "bool"
				}
			],
			"stateMutability": "view",
			"type": "function"
		},
		{
			"inputs": [
				{
					"internalType": "uint256",
					"name": "tokenId",
					"type": "uint256"
				}
			],
			"name": "ownerOf",
			"outputs": [
				{
					"internalType": "address",
					"name": "",
					"type": "address"
				}
			],
			"stateMutability": "view",
			"type": "function"
		},
		{
			"inputs": [
				{
					"internalType": "address",
					"name": "from",
					"type": "address"
				},
				{
					"internalType": "address",
					"name": "to",
					"type": "address"
				},
				{
					"internalType": "uint256",
					"name": "tokenId",
					"type": "uint256"
				}
			],
			"name": "safeTransferFrom",
			"outputs": [],
			"stateMutability": "nonpayable",
			"type": "function"
		},
		{
			"inputs": [
				{
					"internalType": "address",
					"name": "from",
					"type": "address"
				},
				{
					"internalType": "address",
					"name": "to",
					"type": "address"
				},
				{
					"internalType": "uint256",
					"name": "tokenId",
					"type": "uint256"
				},
				{
					"internalType": "bytes",
					"name": "data",
					"type": "bytes"
				}
			],
			"name": "safeTransferFrom",
			"outputs": [],
			"stateMutability": "nonpayable",
			"type": "function"
		},
		{
			"inputs": [
				{
					"internalType": "address",
					"name": "operator",
					"type": "address"
				},
				{
					"internalType": "bool",
					"name": "approved",
					"type": "bool"
				}
			],
			"name": "setApprovalForAll",
			"outputs": [],
			"stateMutability": "nonpayable",
			"type": "function"
		},
		{
			"inputs": [
				{
					"internalType": "bytes4",
					"name": "interfaceId",
					"type": "bytes4"
				}
			],
			"name": "supportsInterface",
			"outputs": [
				{
					"internalType": "bool",
					"name": "",
					"type": "bool"
				}
			],
			"stateMutability": "view",
			"type": "function"
		},
		{
			"inputs": [],
			"name": "symbol",
			"outputs": [
				{
					"internalType": "string",
					"name": "",
					"type": "string"
				}
			],
			"stateMutability": "view",
			"type": "function"
		},
		{
			"inputs": [
				{
					"internalType": "uint256",
					"name": "tokenId",
					"type": "uint256"
				}
			],
			"name": "tokenURI",
			"outputs": [
				{
					"internalType": "string",
					"name": "",
					"type": "string"
				}
			],
			"stateMutability": "view",
			"type": "function"
		},
		{
			"inputs": [
				{
					"internalType": "uint256",
					"name": "_orderId",
					"type": "uint256"
				}
			],
			"name": "trackOrder",
			"outputs": [
				{
					"internalType": "address",
					"name": "merchant",
					"type": "address"
				},
				{
					"internalType": "uint256",
					"name": "amount",
					"type": "uint256"
				},
				{
					"internalType": "address",
					"name": "buyer",
					"type": "address"
				},
				{
					"internalType": "bool",
					"name": "isCompleted",
					"type": "bool"
				},
				{
					"internalType": "address",
					"name": "tokenOwner",
					"type": "address"
				}
			],
			"stateMutability": "view",
			"type": "function"
		},
		{
			"inputs": [
				{
					"internalType": "address",
					"name": "from",
					"type": "address"
				},
				{
					"internalType": "address",
					"name": "to",
					"type": "address"
				},
				{
					"internalType": "uint256",
					"name": "tokenId",
					"type": "uint256"
				}
			],
			"name": "transferFrom",
			"outputs": [],
			"stateMutability": "nonpayable",
			"type": "function"
		},
		{
			"inputs": [
				{
					"internalType": "uint256",
					"name": "_tokenId",
					"type": "uint256"
				},
				{
					"internalType": "address",
					"name": "_to",
					"type": "address"
				}
			],
			"name": "transferNFT",
			"outputs": [],
			"stateMutability": "nonpayable",
			"type": "function"
		}
	],
	"bytecode": "0x608060405260016009553480156200001657600080fd5b506040518060400160405280601081526020017f537570706c79436861696e4f72646572000000000000000000000000000000008152506040518060400160405280600381526020017f53434f0000000000000000000000000000000000000000000000000000000000815250816000908162000094919062000329565b508060019081620000a6919062000329565b50505062000410565b600081519050919050565b7f4e487b7100000000000000000000000000000000000000000000000000000000600052604160045260246000fd5b7f4e487b7100000000000000000000000000000000000000000000000000000000600052602260045260246000fd5b600060028204905060018216806200013157607f821691505b602082108103620001475762000146620000e9565b5b50919050565b60008190508160005260206000209050919050565b60006020601f8301049050919050565b600082821b905092915050565b600060088302620001b17fffffffffffffffffffffffffffffffffffffffffffffffffffffffffffffffff8262000172565b620001bd868362000172565b95508019841693508086168417925050509392505050565b6000819050919050565b6000819050919050565b60006200020a62000204620001fe84620001d5565b620001df565b620001d5565b9050919050565b6000819050919050565b6200022683620001e9565b6200023e620002358262000211565b8484546200017f565b825550505050565b600090565b6200025562000246565b620002628184846200021b565b505050565b5b818110156200028a576200027e6000826200024b565b60018101905062000268565b5050565b601f821115620002d957620002a3816200014d565b620002ae8462000162565b81016020851015620002be578190505b620002d6620002cd8562000162565b83018262000267565b50505b505050565b600082821c905092915050565b6000620002fe60001984600802620002de565b1980831691505092915050565b6000620003198383620002eb565b9150826002028217905092915050565b6200033482620000af565b67ffffffffffffffff81111562000350576200034f620000ba565b5b6200035c825462000118565b620003698282856200028e565b600060209050601f831160018114620003a157600084156200038c578287015190505b6200039885826200030b565b86555062000408565b601f198416620003b1866200014d565b60005b82811015620003db57848901518255600182019150602085019450602081019050620003b4565b86831015620003fb5784890151620003f7601f891682620002eb565b8355505b6001600288020188555050505b505050505050565b61328580620004206000396000f3fe6080604052600436106101145760003560e01c80636352211e116100a0578063a85c38ef11610064578063a85c38ef146103cc578063b88d4fde1461040d578063c87b56dd14610436578063ddff5e7d14610473578063e985e9c51461049c57610114565b80636352211e146102d557806370a08231146103125780639036c0501461034f57806395d89b4114610378578063a22cb465146103a357610114565b806317fd7471116100e757806317fd7471146101e757806323b872dd146102175780632a58b3301461024057806342842e0e1461026b578063609a6aaa1461029457610114565b806301ffc9a71461011957806306fdde0314610156578063081812fc14610181578063095ea7b3146101be575b600080fd5b34801561012557600080fd5b50610140600480360381019061013b9190612314565b6104d9565b60405161014d919061235c565b60405180910390f35b34801561016257600080fd5b5061016b61053a565b6040516101789190612407565b60405180910390f35b34801561018d57600080fd5b506101a860048036038101906101a3919061245f565b6105cc565b6040516101b591906124cd565b60405180910390f35b3480156101ca57600080fd5b506101e560048036038101906101e09190612514565b6105e8565b005b61020160048036038101906101fc9190612689565b6105fe565b60405161020e9190612707565b60405180910390f35b34801561022357600080fd5b5061023e60048036038101906102399190612722565b610800565b005b34801561024c57600080fd5b50610255610902565b6040516102629190612707565b60405180910390f35b34801561027757600080fd5b50610292600480360381019061028d9190612722565b610908565b005b3480156102a057600080fd5b506102bb60048036038101906102b6919061245f565b610928565b6040516102cc959493929190612775565b60405180910390f35b3480156102e157600080fd5b506102fc60048036038101906102f7919061245f565b6109c4565b60405161030991906124cd565b60405180910390f35b34801561031e57600080fd5b50610339600480360381019061033491906127c8565b6109d6565b6040516103469190612707565b60405180910390f35b34801561035b57600080fd5b50610376600480360381019061037191906127f5565b610a90565b005b34801561038457600080fd5b5061038d610b15565b60405161039a9190612407565b60405180910390f35b3480156103af57600080fd5b506103ca60048036038101906103c59190612861565b610ba7565b005b3480156103d857600080fd5b506103f360048036038101906103ee919061245f565b610bbd565b6040516104049594939291906128a1565b60405180910390f35b34801561041957600080fd5b50610434600480360381019061042f9190612995565b610c40565b005b34801561044257600080fd5b5061045d6004803603810190610458919061245f565b610c5d565b60405161046a9190612407565b60405180910390f35b34801561047f57600080fd5b5061049a6004803603810190610495919061245f565b610d70565b005b3480156104a857600080fd5b506104c360048036038101906104be9190612a18565b610e43565b6040516104d0919061235c565b60405180910390f35b6000634906490660e01b7bffffffffffffffffffffffffffffffffffffffffffffffffffffffff1916827bffffffffffffffffffffffffffffffffffffffffffffffffffffffff19161480610533575061053282610ed7565b5b9050919050565b60606000805461054990612a87565b80601f016020809104026020016040519081016040528092919081815260200182805461057590612a87565b80156105c25780601f10610597576101008083540402835291602001916105c2565b820191906000526020600020905b8154815290600101906020018083116105a557829003601f168201915b5050505050905090565b60006105d782610fb9565b506105e182611041565b9050919050565b6105fa82826105f561107e565b611086565b5050565b6000823414610642576040517f08c379a000000000000000000000000000000000000000000000000000000000815260040161063990612b2a565b60405180910390fd5b60006009600081548092919061065790612b79565b9190505590506040518060a001604052808281526020018673ffffffffffffffffffffffffffffffffffffffff1681526020013373ffffffffffffffffffffffffffffffffffffffff16815260200185815260200160001515815250600760008381526020019081526020016000206000820151816000015560208201518160010160006101000a81548173ffffffffffffffffffffffffffffffffffffffff021916908373ffffffffffffffffffffffffffffffffffffffff16021790555060408201518160020160006101000a81548173ffffffffffffffffffffffffffffffffffffffff021916908373ffffffffffffffffffffffffffffffffffffffff1602179055506060820151816003015560808201518160040160006101000a81548160ff0219169083151502179055509050506107958582611098565b61079f8184611191565b83600860008773ffffffffffffffffffffffffffffffffffffffff1673ffffffffffffffffffffffffffffffffffffffff16815260200190815260200160002060008282546107ee9190612bc1565b92505081905550809150509392505050565b600073ffffffffffffffffffffffffffffffffffffffff168273ffffffffffffffffffffffffffffffffffffffff16036108725760006040517f64a0ae9200000000000000000000000000000000000000000000000000000000815260040161086991906124cd565b60405180910390fd5b6000610886838361088161107e565b6111ed565b90508373ffffffffffffffffffffffffffffffffffffffff168173ffffffffffffffffffffffffffffffffffffffff16146108fc578382826040517f64283d7b0000000000000000000000000000000000000000000000000000000081526004016108f393929190612bf5565b60405180910390fd5b50505050565b60095481565b61092383838360405180602001604052806000815250610c40565b505050565b6000806000806000806007600088815260200190815260200160002090508060010160009054906101000a900473ffffffffffffffffffffffffffffffffffffffff1681600301548260020160009054906101000a900473ffffffffffffffffffffffffffffffffffffffff168360040160009054906101000a900460ff166109b08b6109c4565b955095509550955095505091939590929450565b60006109cf82610fb9565b9050919050565b60008073ffffffffffffffffffffffffffffffffffffffff168273ffffffffffffffffffffffffffffffffffffffff1603610a495760006040517f89c62b64000000000000000000000000000000000000000000000000000000008152600401610a4091906124cd565b60405180910390fd5b600360008373ffffffffffffffffffffffffffffffffffffffff1673ffffffffffffffffffffffffffffffffffffffff168152602001908152602001600020549050919050565b3373ffffffffffffffffffffffffffffffffffffffff16610ab0836109c4565b73ffffffffffffffffffffffffffffffffffffffff1614610b06576040517f08c379a0000000000000000000000000000000000000000000000000000000008152600401610afd90612c78565b60405180910390fd5b610b11338284611407565b5050565b606060018054610b2490612a87565b80601f0160208091040260200160405190810160405280929190818152602001828054610b5090612a87565b8015610b9d5780601f10610b7257610100808354040283529160200191610b9d565b820191906000526020600020905b815481529060010190602001808311610b8057829003601f168201915b5050505050905090565b610bb9610bb261107e565b8383611574565b5050565b60076020528060005260406000206000915090508060000154908060010160009054906101000a900473ffffffffffffffffffffffffffffffffffffffff16908060020160009054906101000a900473ffffffffffffffffffffffffffffffffffffffff16908060030154908060040160009054906101000a900460ff16905085565b610c4b848484610800565b610c57848484846116e3565b50505050565b6060610c6882610fb9565b506000600660008481526020019081526020016000208054610c8990612a87565b80601f0160208091040260200160405190810160405280929190818152602001828054610cb590612a87565b8015610d025780601f10610cd757610100808354040283529160200191610d02565b820191906000526020600020905b815481529060010190602001808311610ce557829003601f168201915b505050505090506000610d1361189a565b90506000815103610d28578192505050610d6b565b600082511115610d5d578082604051602001610d45929190612cd4565b60405160208183030381529060405292505050610d6b565b610d66846118b1565b925050505b919050565b3373ffffffffffffffffffffffffffffffffffffffff16610d90826109c4565b73ffffffffffffffffffffffffffffffffffffffff1614610de6576040517f08c379a0000000000000000000000000000000000000000000000000000000008152600401610ddd90612d6a565b60405180910390fd5b60006007600083815260200190815260200160002060020160009054906101000a900473ffffffffffffffffffffffffffffffffffffffff169050610e2c338284611407565b610e358261191a565b610e3f82336119b0565b5050565b6000600560008473ffffffffffffffffffffffffffffffffffffffff1673ffffffffffffffffffffffffffffffffffffffff16815260200190815260200160002060008373ffffffffffffffffffffffffffffffffffffffff1673ffffffffffffffffffffffffffffffffffffffff16815260200190815260200160002060009054906101000a900460ff16905092915050565b60007f80ac58cd000000000000000000000000000000000000000000000000000000007bffffffffffffffffffffffffffffffffffffffffffffffffffffffff1916827bffffffffffffffffffffffffffffffffffffffffffffffffffffffff19161480610fa257507f5b5e139f000000000000000000000000000000000000000000000000000000007bffffffffffffffffffffffffffffffffffffffffffffffffffffffff1916827bffffffffffffffffffffffffffffffffffffffffffffffffffffffff1916145b80610fb25750610fb182611b67565b5b9050919050565b600080610fc583611bd1565b9050600073ffffffffffffffffffffffffffffffffffffffff168173ffffffffffffffffffffffffffffffffffffffff160361103857826040517f7e27328900000000000000000000000000000000000000000000000000000000815260040161102f9190612707565b60405180910390fd5b80915050919050565b60006004600083815260200190815260200160002060009054906101000a900473ffffffffffffffffffffffffffffffffffffffff169050919050565b600033905090565b6110938383836001611c0e565b505050565b600073ffffffffffffffffffffffffffffffffffffffff168273ffffffffffffffffffffffffffffffffffffffff160361110a5760006040517f64a0ae9200000000000000000000000000000000000000000000000000000000815260040161110191906124cd565b60405180910390fd5b6000611118838360006111ed565b9050600073ffffffffffffffffffffffffffffffffffffffff168173ffffffffffffffffffffffffffffffffffffffff161461118c5760006040517f73c6ac6e00000000000000000000000000000000000000000000000000000000815260040161118391906124cd565b60405180910390fd5b505050565b806006600084815260200190815260200160002090816111b19190612f36565b507ff8e1a15aba9398e019f0b49df1a4fde98ee17ae345cb5f6b5e2c27f5033e8ce7826040516111e19190612707565b60405180910390a15050565b6000806111f984611bd1565b9050600073ffffffffffffffffffffffffffffffffffffffff168373ffffffffffffffffffffffffffffffffffffffff161461123b5761123a818486611dd3565b5b600073ffffffffffffffffffffffffffffffffffffffff168173ffffffffffffffffffffffffffffffffffffffff16146112cc5761127d600085600080611c0e565b6001600360008373ffffffffffffffffffffffffffffffffffffffff1673ffffffffffffffffffffffffffffffffffffffff168152602001908152602001600020600082825403925050819055505b600073ffffffffffffffffffffffffffffffffffffffff168573ffffffffffffffffffffffffffffffffffffffff161461134f576001600360008773ffffffffffffffffffffffffffffffffffffffff1673ffffffffffffffffffffffffffffffffffffffff168152602001908152602001600020600082825401925050819055505b846002600086815260200190815260200160002060006101000a81548173ffffffffffffffffffffffffffffffffffffffff021916908373ffffffffffffffffffffffffffffffffffffffff160217905550838573ffffffffffffffffffffffffffffffffffffffff168273ffffffffffffffffffffffffffffffffffffffff167fddf252ad1be2c89b69c2b068fc378daa952ba7f163c4a11628f55a4df523b3ef60405160405180910390a4809150509392505050565b600073ffffffffffffffffffffffffffffffffffffffff168273ffffffffffffffffffffffffffffffffffffffff16036114795760006040517f64a0ae9200000000000000000000000000000000000000000000000000000000815260040161147091906124cd565b60405180910390fd5b6000611487838360006111ed565b9050600073ffffffffffffffffffffffffffffffffffffffff168173ffffffffffffffffffffffffffffffffffffffff16036114fa57816040517f7e2732890000000000000000000000000000000000000000000000000000000081526004016114f19190612707565b60405180910390fd5b8373ffffffffffffffffffffffffffffffffffffffff168173ffffffffffffffffffffffffffffffffffffffff161461156e578382826040517f64283d7b00000000000000000000000000000000000000000000000000000000815260040161156593929190612bf5565b60405180910390fd5b50505050565b600073ffffffffffffffffffffffffffffffffffffffff168273ffffffffffffffffffffffffffffffffffffffff16036115e557816040517f5b08ba180000000000000000000000000000000000000000000000000000000081526004016115dc91906124cd565b60405180910390fd5b80600560008573ffffffffffffffffffffffffffffffffffffffff1673ffffffffffffffffffffffffffffffffffffffff16815260200190815260200160002060008473ffffffffffffffffffffffffffffffffffffffff1673ffffffffffffffffffffffffffffffffffffffff16815260200190815260200160002060006101000a81548160ff0219169083151502179055508173ffffffffffffffffffffffffffffffffffffffff168373ffffffffffffffffffffffffffffffffffffffff167f17307eab39ab6107e8899845ad3d59bd9653f200f220920489ca2b5937696c31836040516116d6919061235c565b60405180910390a3505050565b60008373ffffffffffffffffffffffffffffffffffffffff163b1115611894578273ffffffffffffffffffffffffffffffffffffffff1663150b7a0261172761107e565b8685856040518563ffffffff1660e01b8152600401611749949392919061305d565b6020604051808303816000875af192505050801561178557506040513d601f19601f8201168201806040525081019061178291906130be565b60015b611809573d80600081146117b5576040519150601f19603f3d011682016040523d82523d6000602084013e6117ba565b606091505b50600081510361180157836040517f64a0ae920000000000000000000000000000000000000000000000000000000081526004016117f891906124cd565b60405180910390fd5b805181602001fd5b63150b7a0260e01b7bffffffffffffffffffffffffffffffffffffffffffffffffffffffff1916817bffffffffffffffffffffffffffffffffffffffffffffffffffffffff19161461189257836040517f64a0ae9200000000000000000000000000000000000000000000000000000000815260040161188991906124cd565b60405180910390fd5b505b50505050565b606060405180602001604052806000815250905090565b60606118bc82610fb9565b5060006118c761189a565b905060008151116118e75760405180602001604052806000815250611912565b806118f184611e97565b604051602001611902929190612cd4565b6040516020818303038152906040525b915050919050565b6007600082815260200190815260200160002060040160009054906101000a900460ff161561197e576040517f08c379a000000000000000000000000000000000000000000000000000000000815260040161197590613137565b60405180910390fd5b60016007600083815260200190815260200160002060040160006101000a81548160ff02191690831515021790555050565b600060076000848152602001908152602001600020905060008160030154905060006119df82604b6064611f65565b90506000806119ee848461206c565b9150915081611a32576040517f08c379a0000000000000000000000000000000000000000000000000000000008152600401611a29906131a3565b60405180910390fd5b8460010160009054906101000a900473ffffffffffffffffffffffffffffffffffffffff1673ffffffffffffffffffffffffffffffffffffffff166108fc849081150290604051600060405180830381858888f19350505050158015611a9c573d6000803e3d6000fd5b508573ffffffffffffffffffffffffffffffffffffffff166108fc829081150290604051600060405180830381858888f19350505050158015611ae3573d6000803e3d6000fd5b5083600860008760010160009054906101000a900473ffffffffffffffffffffffffffffffffffffffff1673ffffffffffffffffffffffffffffffffffffffff1673ffffffffffffffffffffffffffffffffffffffff1681526020019081526020016000206000828254611b5791906131c3565b9250508190555050505050505050565b60007f01ffc9a7000000000000000000000000000000000000000000000000000000007bffffffffffffffffffffffffffffffffffffffffffffffffffffffff1916827bffffffffffffffffffffffffffffffffffffffffffffffffffffffff1916149050919050565b60006002600083815260200190815260200160002060009054906101000a900473ffffffffffffffffffffffffffffffffffffffff169050919050565b8080611c475750600073ffffffffffffffffffffffffffffffffffffffff168273ffffffffffffffffffffffffffffffffffffffff1614155b15611d7b576000611c5784610fb9565b9050600073ffffffffffffffffffffffffffffffffffffffff168373ffffffffffffffffffffffffffffffffffffffff1614158015611cc257508273ffffffffffffffffffffffffffffffffffffffff168173ffffffffffffffffffffffffffffffffffffffff1614155b8015611cd55750611cd38184610e43565b155b15611d1757826040517fa9fbf51f000000000000000000000000000000000000000000000000000000008152600401611d0e91906124cd565b60405180910390fd5b8115611d7957838573ffffffffffffffffffffffffffffffffffffffff168273ffffffffffffffffffffffffffffffffffffffff167f8c5be1e5ebec7d5bd14f71427d1e84f3dd0314c0f7b2291e5b200ac8c7c3b92560405160405180910390a45b505b836004600085815260200190815260200160002060006101000a81548173ffffffffffffffffffffffffffffffffffffffff021916908373ffffffffffffffffffffffffffffffffffffffff16021790555050505050565b611dde838383612094565b611e9257600073ffffffffffffffffffffffffffffffffffffffff168373ffffffffffffffffffffffffffffffffffffffff1603611e5357806040517f7e273289000000000000000000000000000000000000000000000000000000008152600401611e4a9190612707565b60405180910390fd5b81816040517f177e802f000000000000000000000000000000000000000000000000000000008152600401611e899291906131f7565b60405180910390fd5b505050565b606060006001611ea684612155565b01905060008167ffffffffffffffff811115611ec557611ec461255e565b5b6040519080825280601f01601f191660200182016040528015611ef75781602001600182028036833780820191505090505b509050600082602001820190505b600115611f5a578080600190039150507f3031323334353637383961626364656600000000000000000000000000000000600a86061a8153600a8581611f4e57611f4d613220565b5b04945060008503611f05575b819350505050919050565b6000808385029050600080198587098281108382030391505060008103611fa057838281611f9657611f95613220565b5b0492505050612065565b808411611fd9576040517f227bc15300000000000000000000000000000000000000000000000000000000815260040160405180910390fd5b600084868809905082811182039150808303925060008560000386169050808604955080840493506001818260000304019050808302841793506000600287600302189050808702600203810290508087026002038102905080870260020381029050808702600203810290508087026002038102905080870260020381029050808502955050505050505b9392505050565b60008083831115612083576000809150915061208d565b6001838503915091505b9250929050565b60008073ffffffffffffffffffffffffffffffffffffffff168373ffffffffffffffffffffffffffffffffffffffff161415801561214c57508273ffffffffffffffffffffffffffffffffffffffff168473ffffffffffffffffffffffffffffffffffffffff16148061210d575061210c8484610e43565b5b8061214b57508273ffffffffffffffffffffffffffffffffffffffff1661213383611041565b73ffffffffffffffffffffffffffffffffffffffff16145b5b90509392505050565b600080600090507a184f03e93ff9f4daa797ed6e38ed64bf6a1f01000000000000000083106121b3577a184f03e93ff9f4daa797ed6e38ed64bf6a1f01000000000000000083816121a9576121a8613220565b5b0492506040810190505b6d04ee2d6d415b85acef810000000083106121f0576d04ee2d6d415b85acef810000000083816121e6576121e5613220565b5b0492506020810190505b662386f26fc10000831061221f57662386f26fc10000838161221557612214613220565b5b0492506010810190505b6305f5e1008310612248576305f5e100838161223e5761223d613220565b5b0492506008810190505b612710831061226d57612710838161226357612262613220565b5b0492506004810190505b60648310612290576064838161228657612285613220565b5b0492506002810190505b600a831061229f576001810190505b80915050919050565b6000604051905090565b600080fd5b600080fd5b60007fffffffff0000000000000000000000000000000000000000000000000000000082169050919050565b6122f1816122bc565b81146122fc57600080fd5b50565b60008135905061230e816122e8565b92915050565b60006020828403121561232a576123296122b2565b5b6000612338848285016122ff565b91505092915050565b60008115159050919050565b61235681612341565b82525050565b6000602082019050612371600083018461234d565b92915050565b600081519050919050565b600082825260208201905092915050565b60005b838110156123b1578082015181840152602081019050612396565b60008484015250505050565b6000601f19601f8301169050919050565b60006123d982612377565b6123e38185612382565b93506123f3818560208601612393565b6123fc816123bd565b840191505092915050565b6000602082019050818103600083015261242181846123ce565b905092915050565b6000819050919050565b61243c81612429565b811461244757600080fd5b50565b60008135905061245981612433565b92915050565b600060208284031215612475576124746122b2565b5b60006124838482850161244a565b91505092915050565b600073ffffffffffffffffffffffffffffffffffffffff82169050919050565b60006124b78261248c565b9050919050565b6124c7816124ac565b82525050565b60006020820190506124e260008301846124be565b92915050565b6124f1816124ac565b81146124fc57600080fd5b50565b60008135905061250e816124e8565b92915050565b6000806040838503121561252b5761252a6122b2565b5b6000612539858286016124ff565b925050602061254a8582860161244a565b9150509250929050565b600080fd5b600080fd5b7f4e487b7100000000000000000000000000000000000000000000000000000000600052604160045260246000fd5b612596826123bd565b810181811067ffffffffffffffff821117156125b5576125b461255e565b5b80604052505050565b60006125c86122a8565b90506125d4828261258d565b919050565b600067ffffffffffffffff8211156125f4576125f361255e565b5b6125fd826123bd565b9050602081019050919050565b82818337600083830152505050565b600061262c612627846125d9565b6125be565b90508281526020810184848401111561264857612647612559565b5b61265384828561260a565b509392505050565b600082601f8301126126705761266f612554565b5b8135612680848260208601612619565b91505092915050565b6000806000606084860312156126a2576126a16122b2565b5b60006126b0868287016124ff565b93505060206126c18682870161244a565b925050604084013567ffffffffffffffff8111156126e2576126e16122b7565b5b6126ee8682870161265b565b9150509250925092565b61270181612429565b82525050565b600060208201905061271c60008301846126f8565b92915050565b60008060006060848603121561273b5761273a6122b2565b5b6000612749868287016124ff565b935050602061275a868287016124ff565b925050604061276b8682870161244a565b9150509250925092565b600060a08201905061278a60008301886124be565b61279760208301876126f8565b6127a460408301866124be565b6127b1606083018561234d565b6127be60808301846124be565b9695505050505050565b6000602082840312156127de576127dd6122b2565b5b60006127ec848285016124ff565b91505092915050565b6000806040838503121561280c5761280b6122b2565b5b600061281a8582860161244a565b925050602061282b858286016124ff565b9150509250929050565b61283e81612341565b811461284957600080fd5b50565b60008135905061285b81612835565b92915050565b60008060408385031215612878576128776122b2565b5b6000612886858286016124ff565b92505060206128978582860161284c565b9150509250929050565b600060a0820190506128b660008301886126f8565b6128c360208301876124be565b6128d060408301866124be565b6128dd60608301856126f8565b6128ea608083018461234d565b9695505050505050565b600067ffffffffffffffff82111561290f5761290e61255e565b5b612918826123bd565b9050602081019050919050565b6000612938612933846128f4565b6125be565b90508281526020810184848401111561295457612953612559565b5b61295f84828561260a565b509392505050565b600082601f83011261297c5761297b612554565b5b813561298c848260208601612925565b91505092915050565b600080600080608085870312156129af576129ae6122b2565b5b60006129bd878288016124ff565b94505060206129ce878288016124ff565b93505060406129df8782880161244a565b925050606085013567ffffffffffffffff811115612a00576129ff6122b7565b5b612a0c87828801612967565b91505092959194509250565b60008060408385031215612a2f57612a2e6122b2565b5b6000612a3d858286016124ff565b9250506020612a4e858286016124ff565b9150509250929050565b7f4e487b7100000000000000000000000000000000000000000000000000000000600052602260045260246000fd5b60006002820490506001821680612a9f57607f821691505b602082108103612ab257612ab1612a58565b5b50919050565b7f5061796d656e7420646f6573206e6f74206d61746368206f7264657220616d6f60008201527f756e740000000000000000000000000000000000000000000000000000000000602082015250565b6000612b14602383612382565b9150612b1f82612ab8565b604082019050919050565b60006020820190508181036000830152612b4381612b07565b9050919050565b7f4e487b7100000000000000000000000000000000000000000000000000000000600052601160045260246000fd5b6000612b8482612429565b91507fffffffffffffffffffffffffffffffffffffffffffffffffffffffffffffffff8203612bb657612bb5612b4a565b5b600182019050919050565b6000612bcc82612429565b9150612bd783612429565b9250828201905080821115612bef57612bee612b4a565b5b92915050565b6000606082019050612c0a60008301866124be565b612c1760208301856126f8565b612c2460408301846124be565b949350505050565b7f43616c6c6572206973206e6f7420746865206f776e6572000000000000000000600082015250565b6000612c62601783612382565b9150612c6d82612c2c565b602082019050919050565b60006020820190508181036000830152612c9181612c55565b9050919050565b600081905092915050565b6000612cae82612377565b612cb88185612c98565b9350612cc8818560208601612393565b80840191505092915050565b6000612ce08285612ca3565b9150612cec8284612ca3565b91508190509392505050565b7f4f6e6c79207468652063757272656e7420686f6c6465722063616e2064656c6960008201527f76657220746865206f7264657200000000000000000000000000000000000000602082015250565b6000612d54602d83612382565b9150612d5f82612cf8565b604082019050919050565b60006020820190508181036000830152612d8381612d47565b9050919050565b60008190508160005260206000209050919050565b60006020601f8301049050919050565b600082821b905092915050565b600060088302612dec7fffffffffffffffffffffffffffffffffffffffffffffffffffffffffffffffff82612daf565b612df68683612daf565b95508019841693508086168417925050509392505050565b6000819050919050565b6000612e33612e2e612e2984612429565b612e0e565b612429565b9050919050565b6000819050919050565b612e4d83612e18565b612e61612e5982612e3a565b848454612dbc565b825550505050565b600090565b612e76612e69565b612e81818484612e44565b505050565b5b81811015612ea557612e9a600082612e6e565b600181019050612e87565b5050565b601f821115612eea57612ebb81612d8a565b612ec484612d9f565b81016020851015612ed3578190505b612ee7612edf85612d9f565b830182612e86565b50505b505050565b600082821c905092915050565b6000612f0d60001984600802612eef565b1980831691505092915050565b6000612f268383612efc565b9150826002028217905092915050565b612f3f82612377565b67ffffffffffffffff811115612f5857612f5761255e565b5b612f628254612a87565b612f6d828285612ea9565b600060209050601f831160018114612fa05760008415612f8e578287015190505b612f988582612f1a565b865550613000565b601f198416612fae86612d8a565b60005b82811015612fd657848901518255600182019150602085019450602081019050612fb1565b86831015612ff35784890151612fef601f891682612efc565b8355505b6001600288020188555050505b505050505050565b600081519050919050565b600082825260208201905092915050565b600061302f82613008565b6130398185613013565b9350613049818560208601612393565b613052816123bd565b840191505092915050565b600060808201905061307260008301876124be565b61307f60208301866124be565b61308c60408301856126f8565b818103606083015261309e8184613024565b905095945050505050565b6000815190506130b8816122e8565b92915050565b6000602082840312156130d4576130d36122b2565b5b60006130e2848285016130a9565b91505092915050565b7f4f7264657220697320616c726561647920636f6d706c65746564000000000000600082015250565b6000613121601a83612382565b915061312c826130eb565b602082019050919050565b6000602082019050818103600083015261315081613114565b9050919050565b7f5375627472616374696f6e206f766572666c6f77000000000000000000000000600082015250565b600061318d601483612382565b915061319882613157565b602082019050919050565b600060208201905081810360008301526131bc81613180565b9050919050565b60006131ce82612429565b91506131d983612429565b92508282039050818111156131f1576131f0612b4a565b5b92915050565b600060408201905061320c60008301856124be565b61321960208301846126f8565b9392505050565b7f4e487b7100000000000000000000000000000000000000000000000000000000600052601260045260246000fdfea26469706673582212208a6d6e750574f60ad163e98eb3d51661d7e515bb50e94501ef24a4cfd60d001864736f6c63430008140033",
	"linkReferences": {},
	"deployedLinkReferences": {}
}